:020000040000fa
:080000000002040000000000f2
:020000040000fa
:04000c00e00300000d
:020000040000fa
:04001000f6030000f3
:020000040000fa
:040014000c040000d8
:020000040000fa
:0400180022040000be
:020000040000fa
:04003400580300006d
:020000040000fa
:040048009004000020
:020000040000fa
:04005c000403000099
:020000040000fa
:04020c0038040000b2
:020000040000fa
:040210004e04000098
:020000040000fa
:04021400640400007e
:020000040000fa
:040218007a04000064
:020000040000fa
:10040000cf9820000e7f22000e018800000000001f
:10041000000020000000e000020032000001200087
:1004200020028800140007008f0107000000e00090
:1004300003003a00402c2100010020000200370098
:100440000000200001002000810f70000100320038
:1004500014000700000020000000e000020032004d
:1004600000000200000000009409020000000000eb
:100470000040da000000fe004440a90020002000f7
:100480000000e0000300320010002000900188000e
:100490004440a800000006008a1f78008b1f7800e7
:1004a00000000600a1028800800478000000eb0034
:1004b0001f003700e284440054a0b4009905ba003c
:1004c000e284440054a0b4009906ba00e2844400d7
:1004d00054a0b4000006eb00476fde00fd07b20039
:1004e000ae018800636ce10003003a00eaff0700f8
:1004f0000000eb000e003700606ce10008003a00dd
:10050000004deb000a05e800020039003420ec0041
:100510000af0a0008b05e900f9ff3e000400370057
:100520006168e100010032000086eb000b0007006b
:1005300019c7ba001905ba000e04e00003003a001a
:100540000a00e000dbff3a0000000600fe07b200f0
:10055000ae0288008a047800f5ff37000cd0a300b3
:10056000e20f4d001c00390089027800354dba00b9
:100570000a05e800020039003420ec000af0a0006f
:100580008b05e9000f003200254dba000a05e8008e
:10059000020039003420ec000af0a0008b05e900cd
:1005a000080032000c00e0000600320015cdba0051
:1005b0000a05e800020039003420ec000af0a0002f
:1005c0008b05e9008984e80054a0b4000b00e0002a
:1005d000e2ff3a00000006009902ba00055d7800cb
:1005e0008b05e900f7ff3200c82ade00055d7800c0
:1005f0008b05e900f3ff32000c00e000f1ff320050
:1006000019ddba00eeff37003600f800809fbe000b
:10061000829fbe00849fbe00869fbe003200f8000d
:100620003400f80010002000a00188001000200015
:10063000900188000000fa0010408000017d200039
:100640008100680001f0a7008100ea008100e90054
:10065000cf08de00814078000000e80010408800ec
:100660000104e00003003200700020003c05070098
:100670000228ef0000188000b04988008093200015
:1006800011c0b3000148780085a0a9000080fa00dd
:100690003400f9003200f9004f03be004f02be00e3
:1006a0004f01be004f00be003600f90000400600ba
:1006b0003600f800809fbe00829fbe00849fbe006f
:1006c000869fbe003200f8003400f80010002000c1
:1006d000a001880010002000900188000000fa00ae
:1006e000c092200090407800a0c3b30080cf50009b
:1006f00006003e00c0922000104078008040e800d4
:10070000c0922000014878001e003700c0922000ef
:100710008040eb0001487800b092200090407800c3
:10072000a0c3b30080cf500006003e00b09220006e
:10073000104078008040e800b09220000148780026
:1007400010003700b09220008040eb000148780094
:10075000a092200010407800f64f500006003e00a6
:10076000a0922000104078008040e800a092200075
:100770000148780003003700a09220008040eb0081
:10078000014878000093200011c0b30001487800b0
:1007900080002000f20407008460a9000080fa00b5
:1007a0003400f9003200f9004f03be004f02be00d2
:1007b0004f01be004f00be003600f90000400600a9
:1007c0003200f8003400f800881f7800180020007c
:1007d000a801880018002000980188004f047800c4
:1007e0000000fa008020a900ffff37003200f80067
:1007f0003400f800881f780018002000a801880045
:1008000018002000980188004f0478000000fa00ca
:100810008060a900ffff37003200f8003400f800c4
:10082000881f780018002000a80188001800200008
:10083000980188004f0478000000fa008040a90069
:10084000ffff37003200f8003400f800881f7800fe
:1008500018002000a80188001800200098018800d6
:100860004f0478000000fa008080a900ffff3700e5
:100870003200f8003400f800881f780018002000cb
:10088000a801880018002000980188004f04780013
:100890000000fa008020a900ffff37003200f800b6
:1008a0003400f800881f780018002000a801880094
:1008b00018002000980188004f0478000000fa001a
:1008c0008060a900ffff37003200f8003400f80014
:1008d000881f780018002000a80188001800200058
:1008e000980188004f0478000000fa008040a900b9
:1008f000ffff37003200f8003400f800881f78004e
:1009000018002000a8018800180020009801880025
:100910004f0478000000fa008080a900ffff370034
:100920003600f800809fbe00829fbe00849fbe00fc
:10093000869fbe003200f8003400f800100020004e
:10094000a001880010002000900188000200fa0039
:100950000040eb00004f7800360037001e80fb009f
:100960006a00b900800078002098200000804000d4
:10097000100078000000e0002d0032001e81fb0016
:100980006a10b90000007800e600400020982000be
:10099000008040001000be0061004000e080480080
:1009a0006a11b9008201780082982000028141001a
:1009b0000089be001e80fb006a00b90000007800bc
:1009c000e600400020982000008040001001be009a
:1009d0001e80fb006a00b900000078008080e800fb
:1009e00020982000008040001000be00800f5100c1
:1009f000818f59000e003a001e80fb006a00b9008a
:100a000080007800209820000080400010007800ce
:100a1000000001001e80fb006a00b9008000780021
:100a200080982000008140006000b8000089be006e
:100a30001e4fe8001e4078000004e000c7ff3200af
:100a40008500a9000080fa003400f9003200f900a6
:100a50004f03be004f02be004f01be004f00be005c
:100a60003600f9000040060000000500889fbe0027
:100a70008a9fbe00800478000200e0005a00320025
:100a800001407800814c780082814400f1f99f0098
:100a9000e20f51005400360091449800a1449800a0
:100aa000e1f99f00d1f99f00e60f51004e0036009a
:100ab000b1449800c1f99f00e80f51004a00360088
:100ac0000905ea00630565000a8444000a0551002f
:100ad000c1ff2f00010565000080fb008000eb00d6
:100ae000121020001310200043000700008cbe00ed
:100af0000a01440060b99f0071b99f00e80f5500da
:100b00003900360020049800310498004004980011
:100b10005104980020b99f0031b99f0040b99f004f
:100b200051b99f00f80f55002f003600600498005f
:100b300071049800000c9800110c9800200c98008b
:100b4000310c9800400c9800510c980020b19f0087
:100b500031b19f0040b19f0051b19f0060b19f0033
:100b600071b19f0000b99f0011b99f00640164003a
:100b70007801410002044400020555006011b800ec
:100b80000203be000002be000403be006022b800e3
:100b90000000720081807200020173008381730083
:100ba0000f00370008027800009abe00029abe00cb
:100bb000009abe000292be00000c9800110c980032
:100bc000220c9800330c9800400c9800510c9800af
:100bd000620c9800730c98000a02b1000802b00081
:100be000ff0f5500efff3e00090078004f05be00e3
:100bf0004f04be0000000600020ab900001bb90045
:100c00000200b8008100420081004300000006009d
:020000040000fa
:100c10000000fa00889fbe008a9fbe008c9fbe0025
:100c200001308000f07f2e000080600000308800de
:100c3000013080000030200001007000003088008a
:100c400001308000f0f32f00008060000030880049
:100c500000a6a9000086a9000046a90000202000e7
:100c60005030880009e6a90009c6a8000986a80036
:100c70000946a8000926a80009a6a8000906a90097
:100c800041308000f0f92f00008060000060a0007b
:100c90004030880061308000f0ff23000080600059
:100ca0006030880061308000000c2000010070007e
:100cb0006030880061308000c003200001007000b7
:100cc00060308800603080003000b3006030880001
:100cd0000266ef00100020003030880005e6a80012
:100ce00005c6a8000586a80005a6a800213080003a
:100cf0000060200001007000203088000506a80078
:100d000001e6a80000e224006001070000e22400e0
:100d10005e010700820320000c0028004d00200027
:100d2000a00180008d0178008c007800a30188006c
:100d300082087800a0018800802025005301070068
:100d4000c20020000a0028004b002000a001800003
:100d50008b0178008a007800a3018800820878005f
:100d6000a0018800803e20004801070062002000aa
:100d70000800280049002000a001800089017800b7
:100d800088007800a301880082087800a00188000c
:100d900080bb20003d0107007600070010c0b300b3
:100da0004f06be004f05be004f04be000080fa0093
:100db000000006000400fa00000f78000e80e80032
:100dc000010878000a0037001e0078001040780003
:100dd0000000fb000000e000140032001e0078005c
:100de000104078001e0fe80013000700000000000c
:100df0000e80e8001000780000f0a7000000ea0074
:100e00000000ea004f00de00004078008e80e8001d
:100e1000910078000101e9008e80e80082087800e6
:100e20000004e000e8ff3a00010037000000000085
:100e30000080fa00000006000200fa00889fbe0051
:100e40008a9fbe00004f78001e00fb00ea0f500092
:100e500007003200ed0f500003003200e80f500091
:100e60000a0032000e0037005f0007003d00370027
:100e700000c8bf000004e00002003a00f8000700cc
:100e800038003700eb000700360037007500070018
:100e900000c2b300e8ff070072000700310037000e
:100ea0001e02fb002200280043002000a001800059
:100eb0008302780082007800a50188008408780009
:100ec000a0018800803e2000f000070001c8bf009c
:100ed0000040e80001e8b70001c8bf00f04f500033
:100ee0001f003a000168ef0000c8bf000004e000e6
:100ef0000e003a00020c20000a0028004b002000df
:100f0000a00180008b0178008a007800a30188008e
:100f100082087800a001880080bb2000db00070069
:100f200010c0b30000e8b7000e0037000208200030
:100f30000800280049002000a001800089017800f5
:100f400088007800a301880082087800a00188004a
:100f500080bb2000cd0007000068ef0001003700d3
:100f6000000000004f05be004f04be000080fa00e4
:100f7000000006000000fa00889fbe001300200059
:100f80000000280041002000a2018000010278003a
:100f900000007800a401880003087800a2018800fe
:100fa00080bb2000b90007002200200008002800b4
:100fb00049002000a00180008901780088007800a5
:100fc000a301880082087800a001880080bb20006f
:100fd000ae0007000068ef000168ef004f04be009c
:100fe0000080fa00000006000000fa0004802000e3
:100ff000144278000404e0000c003a0004082000c9
:101000000200280043002000a00180008302780035
:1010100082007800a501880084087800a00188007b
:1010200080bb2000990007000b003700030c200054
:101030000000280041002000a20180000102780089
:1010400000007800a401880003087800a20188004d
:1010500080bb20008d0007000168ef000080fa00cf
:10106000000006000200fa001680200016437800f7
:101070000604e00026003a0000c8bf000004e000bb
:101080000e003a00020c2000040028004500200059
:10109000a00180008501780084007800a301880009
:1010a00082087800a001880080bb2000770007003c
:1010b00010c0b30000e8b7000c003700040820009f
:1010c0000200280043002000a00180008302780075
:1010d00082007800a501880084087800a0018800bb
:1010e00080bb2000690007000068ef000040eb00b3
:1010f000004f780002003700180007001e4fe8007c
:101100001e407800ee4f5000fbff36001100370004
:1011100012802000124178000241e90082417800eb
:10112000118020008348780003012000000028007f
:1011300041002000a2018000010278000000780038
:10114000a401880003087800a2018800803e2000e6
:101150004e0007000080fa00000006000000fa00c0
:10116000889fbe008a9fbe00430120000000280027
:1011700041002000a20180000102780000007800f8
:10118000a401880003087800a2018800803e2000a6
:101190003e00070001c8bf000040e80001e8b700ba
:1011a00001c8bf00f04f50001e003a000168ef0078
:1011b00000c8bf000004e0000e003a00020c20004e
:1011c0000a0028004b002000a00180008b0178005d
:1011d0008a007800a301880082087800a0018800b6
:1011e00080bb20002900070010c0b30000e8b70052
:1011f0000c003700020820000800280049002000e9
:10120000a00180008901780088007800a30188008f
:1012100082087800a001880080bb20001b00070026
:101220000068ef004f05be004f04be000080fa00ca
:10123000000006000200fa000040eb00004f7800ba
:101240000200370087ff07001e4fe8001e407800ad
:10125000ef4f5000fbff36000080fa000000060050
:101260000200fa000040eb00004f78000200370057
:10127000baff07001e4fe8001e407800ef4f5000f5
:10128000fbff36000080fa00000006000200fa00b2
:10129000000f7800010037001e0fe9001e007800e3
:1012a0000000e000fcff3a000080fa0000000600a9
:1012b0000200fa00004f78001e4078000004e000b1
:1012c0000c003200f200200004002800450020003d
:1012d000a00180008501780084007800a3018800c7
:1012e00082087800a001880080bb2000e7ff07008b
:1012f0000b003700c400200002002800430020003b
:10130000a00180008302780082007800a501880097
:1013100084087800a001880080bb2000dbff070064
:101320000080fa00000006000000fa00c404070074
:101330004080200029010700110120009093200027
:101340009cfe070011012000b094200099fe0700c8
:101350000000000010002000340407000004a20078
:101360000004e000fbff3a0010002000fb03070030
:10137000100020006303070011012000d095200019
:101380008cfe070011012000f096200089fe070066
:1013900003003700000000000100370000000000db
:1013a00000932000104078000004e000f9ff3200b4
:1013b000a092200010407800d700070032000700fc
:1013c000009320008040eb000148780080932000cb
:1013d000104078000004e000f0ff3200b0498000c7
:1013e0005c00070000c2b30093fe070000c2b30018
:1013f00091fe070000c5b3008ffe0700f0c6b300e2
:101400008dfe070040c7b3008bfe070000c2b3008b
:1014100089fe0700d0c3b30087fe070000c2b300f7
:1014200085fe0700109320001040780082fe070020
:10143000e0c2b30080fe0700209320001040780037
:101440007dfe070030932000104078007afe0700f0
:1014500000c2b30078fe070060c5b30076fe070047
:1014600040c6b30074fe070030c6b30072fe07002a
:1014700000c2b30070fe0700809320008040eb00a4
:1014800001487800c6ff37000000fa0040c5b300ed
:1014900069fe070090c6b30067fe0700d0c6b30020
:1014a00065fe070050c6b30063fe070000c2b3002c
:1014b00061fe0700e0922000104078000043b00079
:1014c0005dfe0700f0922000104078000043b0005d
:1014d00059fe0700b0922000104078008e000700ef
:1014e000a0c3b30054fe070000c2b30052fe0700c1
:1014f000e0922000104078000043b0004efe07004c
:10150000f0922000104078000043b0004afe07002f
:10151000c0922000104078007f000700a0c3b300f5
:1015200045fe070000c2b30043fe0700e092200022
:10153000104078000043b0003ffe0700f09220000a
:10154000104078000043b0003bfe07000080fa0026
:10155000000006000200fa00000f7800109320003f
:101560008040eb0001487800209320008040eb0091
:1015700001487800309320008040eb00014878005b
:10158000409320008040eb00014878004500370080
:10159000501320009e007800808f50000800360015
:1015a00010932000104078008040e8001093200045
:1015b00001487800a1ec2f001e8f40003900370051
:1015c0001e007800fe0f500015003600209320000a
:1015d00010407800e84f500006003e0020932000a5
:1015e000104078008040e8002093200001487800f7
:1015f0000800370010932000104078008040e80079
:101600001093200001487800209320008040eb00d8
:10161000014878001e0178007f0f5100210037003b
:101620001e007800e20f50001500360030932000b5
:1016300010407800e84f500006003e003093200034
:10164000104078008040e800309320000148780086
:101650000800370020932000104078008040e80008
:101660002093200001487800309320008040eb0058
:10167000014878009e007800638f50000900370011
:101680001e007800e20f500006003e00409320004c
:10169000104078008040e800409320000148780026
:1016a0001e0fe9001e0078000000e000b8ff3a00bd
:1016b000109320001040780002c3b3008240400025
:1016c00010932000014878002093200010407800fb
:1016d00002c3b300824040002093200001487800fc
:1016e000309320001040780002c3b30082404000d5
:1016f000309320000148780040932000104078008b
:1017000002c3b300824040004093200001487800ab
:101710000080fa00000006000200fa00004f780086
:10172000d09220008040eb0001487800e092200039
:101730008040eb0001487800f09220008040eb00f0
:10174000014878001e00370070ccb3009e4078003e
:1017500080cf50000500360081c3b3001ecf40008b
:10176000d092200021c0b3000148780030c6b300f9
:101770009e40780080cf500007003600c0c9b300fb
:101780001e4f4000d0922000104078008040e800ba
:10179000d0922000014878001e407800e94f5000a8
:1017a000070036009e4078006acf5000e09220008b
:1017b000104078008040e800e09220000148780066
:1017c0001e407800e94f5000dfff3e00f0922000fd
:1017d0001e4878000080fa00000006000200fa00af
:1017e000000f78001e0078008000eb000012b000af
:1017f000010878001e0078008000eb002012b00085
:10180000010878001e0078008000eb004012b00054
:10181000010878000080fa00000006000200fa00cb
:10182000000f78001e0078004012b0001000780011
:1018300000f0a7000000ea000000e9004f00de0011
:101840000080fa00000006000200fa00000f780095
:101850001e0078004012b000100078006c00680094
:1018600000f0a7000000ea000000e9004f00de00e1
:101870000080fa00000006000200fa00000f780065
:101880001e0078004012b000100078000080fa00be
:10189000000006000200fa00000f78001e00780029
:1018a000e9ff07000000e00024003a001e00780075
:1018b0002012b000100178009e0178007810b90065
:1018c0000000780000804100fe0057000b00090076
:1018d000311878008001b1008200e8001e00780015
:1018e0002012b000010878001e0078002012b0001d
:1018f00010017800b0aa2a000010b8004308de00ea
:101900006c00b90000007800000051009e007800d3
:101910002112b000800878001e0078004012b0004c
:10192000100078008000e8001e0078004012b0002f
:101930000108780010002000010037000000eb00d3
:101940000080fa00000006001a00fa00000178008a
:101950007800470001087800780047001000780000
:101960000012b000900078007800470090017800e5
:101970007808b90000007800808041000b00090061
:10198000311f78008e01b100780047001000780008
:101990000012b00090017800b0aa2a000018b80028
:1019a0004308de006c00b9000000780000805100a0
:1019b000f8004700910078000112b000800878001c
:1019c00078004700100078004012b0001000780046
:1019d0008000e90078004700100078004012b00055
:1019e00001087800170009003e5978008201b10013
:1019f0008e01b100020078000080fa0000000600ad
:101a00000200fa00000f78001e007800e40f50007a
:101a10001a003200e40f500009003e00e10f5000b0
:101a200010003200e10f50001e003900e20f50009c
:101a30000e003200e30f50000e0032001a00370093
:101a4000e60f500011003200e60f50000d00390083
:101a5000e70f50000f003200e80f50000f00320077
:101a600011003700c402a8000f003700c422a800ec
:101a70000d003700c442a8000b003700c462a80064
:101a800009003700c482a80007003700c4a2a800dc
:101a900005003700c4c2a80003003700c4e2a80054
:101aa00001003700000000000080fa00000006007e
:101ab0000200fa00000f78001e007800e40f5000ca
:101ac0001a003200e40f500009003e00e10f500000
:101ad00010003200e10f50001e003900e20f5000ec
:101ae0000e003200e30f50000e0032001a003700e3
:101af000e60f500011003200e60f50000d003900d3
:101b0000e70f50000f003200e80f50000f003200c6
:101b100011003700c402a9000f003700c422a90039
:101b20000d003700c442a9000b003700c462a900b1
:101b300009003700c482a90007003700c4a2a90029
:101b400005003700c4c2a90003003700c4e2a900a1
:101b500001003700000000000080fa0000000600cd
:101b60000200fa00000f78001e007800e40f500019
:101b70003a003200e40f500009003e00e10f50002f
:101b800010003200e10f500075003900e20f5000e4
:101b900018003200e30f50002300320071003700bc
:101ba000e60f500047003200e60f500038003900c1
:101bb000e70f500050003200e80f50005b00320089
:101bc0006800370020168000004078006140600007
:101bd0000004a200614060000080fb006100600022
:101be000211680000100a10001007000201688006d
:101bf0005c003700201680000000d10061406000ca
:101c00000004a200614060000080fb0061006000f1
:101c100000004000211680000110a10001007000aa
:101c2000201688004f003700201680004200de009a
:101c3000614060000004a200614060000080fb0081
:101c4000610060004200dd00211680000120a1003b
:101c50000100700020168800420037002016800026
:101c60004300de00614060000004a20061406000ab
:101c70000080fb00610060004300dd002116800051
:101c80000130a100010070002016880035003700e7
:101c9000201680004400de00614060000004a200c5
:101ca000614060000080fb00610060004400dd00d6
:101cb000211680000140a10001007000201688005c
:101cc00028003700201680004500de0061406000db
:101cd0000004a200614060000080fb006100600021
:101ce0004500dd00211680000150a10001007000b8
:101cf000201688001b003700201680004600de00fa
:101d0000614060000004a200614060000080fb00b0
:101d1000610060004600dd00211680000160a10026
:101d200001007000201688000e0037002016800089
:101d30004700de00614060000004a20061406000d6
:101d40000080fb00610060004700dd00211680007c
:101d50000170a1000100700020168800010037000a
:101d6000000000000080fa00000006000200fa00f7
:101d7000000f78001e007800e40f50002c003200a5
:101d8000e40f500009003e00e10f50001000320047
:101d9000e10f500051003900e20f500014003200f2
:101da000e30f50001a0032004e003700e60f5000db
:101db0002f003200e60f500025003900e70f5000d9
:101dc00034003200e80f50003b003200450037007d
:101dd000201680006100600000f0a7000000ea000b
:101de0000000ea004f00de00004078003e003700af
:101df000201680006200600000f0a7000000ea00ea
:101e00000000ea004f00de00004078003600370096
:101e1000201680006400600000f0a7000000ea00c7
:101e20000000ea004f00de00004078002e0037007e
:101e3000201680006800600000f0a7000000ea00a3
:101e40000000ea004f00de00004078002600370066
:101e5000201680007000600000f0a7000000ea007b
:101e60000000ea004f00de00004078001e0037004e
:101e700021168000000220000080600000f0a70012
:101e80000000ea000000ea004f00de000040780099
:101e9000150037002116800000042000008060003b
:101ea00000f0a7000000ea000000ea004f00de009a
:101eb000004078000c003700211680000008200048
:101ec0000080600000f0a7000000ea000000ea00c7
:101ed0004f00de0000407800030037000040eb00b8
:101ee000010037000040eb000080fa00000006000f
:101ef0000200fa00000f78001e007800e40f500086
:101f00001a003200e40f500009003e00e10f5000bb
:101f100010003200e10f50001e003900e20f5000a7
:101f20000e003200e30f50000e0032001a0037009e
:101f3000e60f500011003200e60f50000d0039008e
:101f4000e70f50000f003200e80f50000f00320082
:101f500011003700c002a9000f003700c022a900fd
:101f60000d003700c042a9000b003700c062a90075
:101f700009003700c082a90007003700c0a2a900ed
:101f800005003700c0c2a90003003700c0e2a90065
:101f900001003700000000000080fa000000060089
:101fa0000400fa008e80e800800878000e80e800c7
:101fb00010007800e40f500004003200e50f5000dc
:101fc0000400320000c0eb001100370000000000e8
:101fd00001003700000000000e80e80010007800cb
:101fe0000d000700d1cc2c000100b8004308de0032
:101ff000004f780040c6b3009e40780080cf50006c
:102000000200360040c6b300004f78001e40780042
:102010000080fa00000006000400fa008e80e8004c
:10202000800878000e80e80010007800e40f50006f
:1020300004003200e50f5000040032000080eb0085
:102040001e00370000000000010037000000000003
:102050000e80e80090007800411a88004023a80014
:102060000000eb00000f7800010037001e0fe800b1
:10207000703e20009e007800808f5000fbff3600ed
:102080004023a9000000eb00000f7800010037009a
:102090001e0fe800703e20009e007800808f5000e8
:1020a000fbff360000000000001a800061006000a5
:1020b0000000e000fcff3200001880000080fa0001
:1020c000000006000200fa00000f78001e007800f1
:1020d000e40f500005003200e50f500006003a0002
:1020e000e2a4a80010c0b30004003700e284a800f6
:1020f00010c0b300010037000040eb000080fa0080
:10210000000006000200fa00000f78001e007800b0
:102110000000e0001c003a00111a8000f0ff2300cc
:1021200000806000101a880043a3a90000c0eb00e3
:1021300044e3b700011a8000f0f02f000080600037
:10214000001a8800211a8000f00f2e000080600025
:1021500000c0a000201a8800011a8000f0cf2f00d4
:1021600000806000001a8800111a800030f82f00eb
:1021700000806000101a88004143a90041e3a800d4
:1021800010c0b300270037001e007800e10f500098
:1021900023003a00011a8000f0f02f0080806000d8
:1021a0000007200001007000001a88004043a800ca
:1021b000111a8000f0ff230000806000101a8800d0
:1021c00043a3a900111a800030f82f00008060009e
:1021d000101a88004343a9004203a900f0c2b300cb
:1021e00044e3b700211a8000f00f2e0080806000c9
:1021f0000030200001007000201a880095a0a8007f
:102200004143a90041e3a80050002000401a880083
:1022100085a0a9005023ef0010c0b30001003700d3
:102220000040eb000080fa00000006000400fa0005
:102230008e80e800800878000040eb00004f7800b6
:10224000120037001e80fb006a00b9008000780091
:102250002098200000804000900078000e80e80068
:1022600010007800808f500007003a001e80fb00ad
:102270006a00b900800078002098200000804000ab
:102280008000eb00010878001e4fe8001e40780037
:102290000004e000ebff32000080fa0000000600be
:1022a0000800fa008e80e80080087800640047008b
:1022b0000288be000040eb00004f7800210037008c
:1022c0001e80fb006a00b900800078002098200082
:1022d00000804000100078000000e00018003a0084
:1022e0001e80fb006a00b900800078002098200062
:1022f000008040008e80e800110878001e80fb00fe
:102300006a00b900800078004098200000804000fa
:10231000e400470031187800211078001e80fb008f
:102320006a00b90080007800809820000081400099
:102330006000b8000089be0010c0b300050037007f
:102340001e4fe8001e4078000004e000dcff320071
:102350000040eb000080fa00000006000200fa00d6
:10236000000f78001e007800e10f500017003200c7
:10237000e10f500003003900e20f50002500320049
:1023800027003700a20020008000eb0020982000ea
:10239000b6f907004105800080ff2f000080600033
:1023a0000000a000400588008500a9000a21ef0078
:1023b000007d20007008880000012a009008880035
:1023c0009500a80010c0b30016003700a20020003e
:1023d0008000eb0020982000a4f907002105800070
:1023e000f0ff28000080600000e0a00020058800c9
:1023f0008460a9000021ef00000028001008880078
:1024000020002800200888009460a80010c0b300b5
:10241000040037009500a90010c0b3000100370088
:102420000040eb000080fa00000006000200fa0005
:10243000000f78001e007800e20f500015003200f7
:10244000e20f500005003e000000e0002c003200ca
:10245000e10f5000060032002b003700e30f500060
:1024600015003200e40f50001c0032002600370037
:10247000d1168000000420000080600000f0a7005a
:102480000000ea000000e9004f00de000040780094
:102490001e003700d1168000000820000080600078
:1024a00000f0a7000000ea000000e9004f00de0095
:1024b0000040780015003700111680000008200049
:1024c0000080600000f0a7000000ea000000e900c2
:1024d0004f00de00004078000c003700d11680006d
:1024e000000022000080600000f0a7000000ea0069
:1024f0000000e9004f00de000040780003003700d4
:102500000040eb00010037000040eb000080fa00c3
:10251000000006000200fa00000f78001e0078009c
:10252000e20f50000f003200e20f500005003e00a5
:102530000000e00011003200e10f50000600320000
:102540000f003700e30f500008003200e40f500086
:10255000080032000a003700d8c2a800e6c4a9006b
:1025600007003700d8e2a80005003700c0e2a80045
:1025700003003700d9a2a8000100370000000000c6
:082580000080fa0000000600d3
:020000040000fa
:1025880000080000020000008000000002080000af
:102598000200000080000000820900000a0000001c
:1025a800800000002a090000580000008200000096
:1025b8000000000000000000000000000000000013
:1025c80000000000457870006c6f72006572200092
:1025d8003136200044656d006f00000050726500c0
:1025e8007373200053332000746f2000636f6e00f4
:1025f8007400000054696d0065203000303a2000f6
:1026080030303a00203030002000000020506f00a9
:1026180074203d0020302e003030200056646300c6
:10262800200000000000000004080000260100004f
:0826380080000000000000001a
:020000040000fa
:102640000000fa007000200029fe07008000200032
:1026500027fe070070002000e9fc07008000200032
:10266000e7fc070010002000aaff07005000200030
:1026700094fe070066f90700020007000080fa00d8
:10268000000006000600fa0020c0b300004f7800ea
:1026900061c4b3000e00e8000148780071c5b300c2
:1026a0000e80e80001487800217420006400470093
:1026b0000108780064004700900178000e00e800ef
:1026c000104078008e80e800914078001e4178002c
:1026d0008049780081497800824978000080fa00ba
:0426e00000000600f0
:020000040000fa
:020000040002f8
:04aff000ffff00005f
:020000040000fa
:020000040002f8
:04aff400ffff00005b
:020000040000fa
:020000040002f8
:04aff800bdfa00009e
:020000040000fa
:020000040002f8
:04affc00ff3e000014
:00000001FF
